{
  "_format": "hh-sol-artifact-1",
  "contractName": "Todo",
  "sourceName": "contracts/Todo.sol",
  "abi": [
    {
      "inputs": [
        {
          "internalType": "string",
          "name": "name",
          "type": "string"
        }
      ],
      "name": "addTodo",
      "outputs": [],
      "stateMutability": "nonpayable",
      "type": "function"
    },
    {
      "inputs": [
        {
          "internalType": "uint256",
          "name": "id",
          "type": "uint256"
        },
        {
          "internalType": "string",
          "name": "name",
          "type": "string"
        }
      ],
      "name": "changeName",
      "outputs": [],
      "stateMutability": "nonpayable",
      "type": "function"
    },
    {
      "inputs": [
        {
          "internalType": "uint256",
          "name": "id",
          "type": "uint256"
        }
      ],
      "name": "deleteTodo",
      "outputs": [],
      "stateMutability": "nonpayable",
      "type": "function"
    },
    {
      "inputs": [],
      "name": "getAll",
      "outputs": [
        {
          "components": [
            {
              "internalType": "uint256",
              "name": "id",
              "type": "uint256"
            },
            {
              "internalType": "string",
              "name": "name",
              "type": "string"
            },
            {
              "internalType": "bool",
              "name": "completed",
              "type": "bool"
            }
          ],
          "internalType": "struct Todo.Item[]",
          "name": "",
          "type": "tuple[]"
        }
      ],
      "stateMutability": "view",
      "type": "function"
    },
    {
      "inputs": [
        {
          "internalType": "uint256",
          "name": "",
          "type": "uint256"
        }
      ],
      "name": "items",
      "outputs": [
        {
          "internalType": "uint256",
          "name": "id",
          "type": "uint256"
        },
        {
          "internalType": "string",
          "name": "name",
          "type": "string"
        },
        {
          "internalType": "bool",
          "name": "completed",
          "type": "bool"
        }
      ],
      "stateMutability": "view",
      "type": "function"
    },
    {
      "inputs": [],
      "name": "nextId",
      "outputs": [
        {
          "internalType": "uint256",
          "name": "",
          "type": "uint256"
        }
      ],
      "stateMutability": "view",
      "type": "function"
    },
    {
      "inputs": [
        {
          "internalType": "uint256",
          "name": "id",
          "type": "uint256"
        }
      ],
      "name": "read",
      "outputs": [
        {
          "internalType": "uint256",
          "name": "itemid",
          "type": "uint256"
        },
        {
          "internalType": "string",
          "name": "name",
          "type": "string"
        },
        {
          "internalType": "bool",
          "name": "completed",
          "type": "bool"
        }
      ],
      "stateMutability": "view",
      "type": "function"
    },
    {
      "inputs": [
        {
          "internalType": "uint256",
          "name": "id",
          "type": "uint256"
        },
        {
          "internalType": "bool",
          "name": "completed",
          "type": "bool"
        }
      ],
      "name": "toggle",
      "outputs": [],
      "stateMutability": "nonpayable",
      "type": "function"
    }
  ],
  "bytecode": "0x608060405234801561001057600080fd5b50610faf806100206000396000f3fe608060405234801561001057600080fd5b50600436106100885760003560e01c806395ffebf51161005b57806395ffebf514610101578063bfb231d21461011d578063c39cbef11461014f578063ed2e5a971461016b57610088565b806317bc640a1461008d57806353ed5143146100a957806361b8ce8c146100c75780636e3c6738146100e5575b600080fd5b6100a760048036038101906100a29190610a5b565b61019d565b005b6100b161027c565b6040516100be9190610c72565b60405180910390f35b6100cf610392565b6040516100dc9190610c94565b60405180910390f35b6100ff60048036038101906100fa9190610a32565b610398565b005b61011b600480360381019061011691906109f1565b610412565b005b61013760048036038101906101329190610a32565b6104c1565b60405161014693929190610caf565b60405180910390f35b61016960048036038101906101649190610a97565b610590565b005b61018560048036038101906101809190610a32565b61066c565b60405161019493929190610caf565b60405180910390f35b60005b6000805490508110156102775782600082815481106101e8577f4e487b7100000000000000000000000000000000000000000000000000000000600052603260045260246000fd5b906000526020600020906003020160000154141561026457816000828154811061023b577f4e487b7100000000000000000000000000000000000000000000000000000000600052603260045260246000fd5b906000526020600020906003020160020160006101000a81548160ff0219169083151502179055505b808061026f90610e64565b9150506101a0565b505050565b60606000805480602002602001604051908101604052809291908181526020016000905b828210156103895783829060005260206000209060030201604051806060016040529081600082015481526020016001820180546102dd90610e01565b80601f016020809104026020016040519081016040528092919081815260200182805461030990610e01565b80156103565780601f1061032b57610100808354040283529160200191610356565b820191906000526020600020905b81548152906001019060200180831161033957829003601f168201915b505050505081526020016002820160009054906101000a900460ff161515151581525050815260200190600101906102a0565b50505050905090565b60015481565b600081815481106103d2577f4e487b7100000000000000000000000000000000000000000000000000000000600052603260045260246000fd5b90600052602060002090600302016000808201600090556001820160006103f9919061087c565b6002820160006101000a81549060ff0219169055505050565b6000604051806060016040528060015481526020018381526020016000151581525090806001815401808255809150506001900390600052602060002090600302016000909190919091506000820151816000015560208201518160010190805190602001906104839291906108bc565b5060408201518160020160006101000a81548160ff0219169083151502179055505050600160008154809291906104b990610e64565b919050555050565b600081815481106104d157600080fd5b90600052602060002090600302016000915090508060000154908060010180546104fa90610e01565b80601f016020809104026020016040519081016040528092919081815260200182805461052690610e01565b80156105735780601f1061054857610100808354040283529160200191610573565b820191906000526020600020905b81548152906001019060200180831161055657829003601f168201915b5050505050908060020160009054906101000a900460ff16905083565b60005b6000805490508110156106675782600082815481106105db577f4e487b7100000000000000000000000000000000000000000000000000000000600052603260045260246000fd5b906000526020600020906003020160000154141561065457816000828154811061062e577f4e487b7100000000000000000000000000000000000000000000000000000000600052603260045260246000fd5b906000526020600020906003020160010190805190602001906106529291906108bc565b505b808061065f90610e64565b915050610593565b505050565b60006060600080600090505b6000805490508110156108735784600082815481106106c0577f4e487b7100000000000000000000000000000000000000000000000000000000600052603260045260246000fd5b90600052602060002090600302016000015414156108605760008181548110610712577f4e487b7100000000000000000000000000000000000000000000000000000000600052603260045260246000fd5b9060005260206000209060030201600001546000828154811061075e577f4e487b7100000000000000000000000000000000000000000000000000000000600052603260045260246000fd5b9060005260206000209060030201600101600083815481106107a9577f4e487b7100000000000000000000000000000000000000000000000000000000600052603260045260246000fd5b906000526020600020906003020160020160009054906101000a900460ff168180546107d490610e01565b80601f016020809104026020016040519081016040528092919081815260200182805461080090610e01565b801561084d5780601f106108225761010080835404028352916020019161084d565b820191906000526020600020905b81548152906001019060200180831161083057829003601f168201915b5050505050915093509350935050610875565b808061086b90610e64565b915050610678565b505b9193909250565b50805461088890610e01565b6000825580601f1061089a57506108b9565b601f0160209004906000526020600020908101906108b89190610942565b5b50565b8280546108c890610e01565b90600052602060002090601f0160209004810192826108ea5760008555610931565b82601f1061090357805160ff1916838001178555610931565b82800160010185558215610931579182015b82811115610930578251825591602001919060010190610915565b5b50905061093e9190610942565b5090565b5b8082111561095b576000816000905550600101610943565b5090565b600061097261096d84610d12565b610ced565b90508281526020810184848401111561098a57600080fd5b610995848285610dbf565b509392505050565b6000813590506109ac81610f4b565b92915050565b600082601f8301126109c357600080fd5b81356109d384826020860161095f565b91505092915050565b6000813590506109eb81610f62565b92915050565b600060208284031215610a0357600080fd5b600082013567ffffffffffffffff811115610a1d57600080fd5b610a29848285016109b2565b91505092915050565b600060208284031215610a4457600080fd5b6000610a52848285016109dc565b91505092915050565b60008060408385031215610a6e57600080fd5b6000610a7c858286016109dc565b9250506020610a8d8582860161099d565b9150509250929050565b60008060408385031215610aaa57600080fd5b6000610ab8858286016109dc565b925050602083013567ffffffffffffffff811115610ad557600080fd5b610ae1858286016109b2565b9150509250929050565b6000610af78383610c04565b905092915050565b6000610b0a82610d53565b610b148185610d76565b935083602082028501610b2685610d43565b8060005b85811015610b625784840389528151610b438582610aeb565b9450610b4e83610d69565b925060208a01995050600181019050610b2a565b50829750879550505050505092915050565b610b7d81610da9565b82525050565b610b8c81610da9565b82525050565b6000610b9d82610d5e565b610ba78185610d87565b9350610bb7818560208601610dce565b610bc081610f3a565b840191505092915050565b6000610bd682610d5e565b610be08185610d98565b9350610bf0818560208601610dce565b610bf981610f3a565b840191505092915050565b6000606083016000830151610c1c6000860182610c54565b5060208301518482036020860152610c348282610b92565b9150506040830151610c496040860182610b74565b508091505092915050565b610c5d81610db5565b82525050565b610c6c81610db5565b82525050565b60006020820190508181036000830152610c8c8184610aff565b905092915050565b6000602082019050610ca96000830184610c63565b92915050565b6000606082019050610cc46000830186610c63565b8181036020830152610cd68185610bcb565b9050610ce56040830184610b83565b949350505050565b6000610cf7610d08565b9050610d038282610e33565b919050565b6000604051905090565b600067ffffffffffffffff821115610d2d57610d2c610f0b565b5b610d3682610f3a565b9050602081019050919050565b6000819050602082019050919050565b600081519050919050565b600081519050919050565b6000602082019050919050565b600082825260208201905092915050565b600082825260208201905092915050565b600082825260208201905092915050565b60008115159050919050565b6000819050919050565b82818337600083830152505050565b60005b83811015610dec578082015181840152602081019050610dd1565b83811115610dfb576000848401525b50505050565b60006002820490506001821680610e1957607f821691505b60208210811415610e2d57610e2c610edc565b5b50919050565b610e3c82610f3a565b810181811067ffffffffffffffff82111715610e5b57610e5a610f0b565b5b80604052505050565b6000610e6f82610db5565b91507fffffffffffffffffffffffffffffffffffffffffffffffffffffffffffffffff821415610ea257610ea1610ead565b5b600182019050919050565b7f4e487b7100000000000000000000000000000000000000000000000000000000600052601160045260246000fd5b7f4e487b7100000000000000000000000000000000000000000000000000000000600052602260045260246000fd5b7f4e487b7100000000000000000000000000000000000000000000000000000000600052604160045260246000fd5b6000601f19601f8301169050919050565b610f5481610da9565b8114610f5f57600080fd5b50565b610f6b81610db5565b8114610f7657600080fd5b5056fea2646970667358221220dc6c8c49df72c460d2d85600753dbe1a18ee4094f0e13f1b4bcc85880b1cdc1b64736f6c63430008030033",
  "linkReferences": {},
  "deployedLinkReferences": {}
}